:020000040800F2
:10000000100D00202902000845500008F54900089D
:100010004150000849050008095D00080000000083
:100020000000000000000000000000005D52000819
:10003000811400080000000059520008B152000865
:10004000430200084302000843020008430200087C
:10005000430200084302000843020008430200086C
:10006000430200084302000843020008430200085C
:10007000430200084302000843020008430200084C
:10008000430200084302000843020008430200083C
:100090004D0500085D050008430200084302000802
:1000A0004302000889530008430200084302000885
:1000B0009953000843020008430200084302000865
:1000C00043020008430200084302000843020008FC
:1000D00043020008315C00084302000843020008A4
:1000E0008514000843020008430200084302000888
:1000F00043020008430200084302000843020008CC
:1001000043020008430200084302000843020008BB
:1001100043020008430200084302000843020008AB
:1001200043020008430200082114000843020008AB
:100130004302000800000000000000004302000825
:100140006D0500087D050008430200084302000811
:10015000430200084302000843020008430200086B
:10016000430200084302000843020008430200085B
:1001700043020008430200080000000000000000E5
:10018000430200084302000800F002F800F03CF8C7
:100190000AA090E8000C82448344AAF10107DA45E2
:1001A00001D100F031F8AFF2090EBAE80F0013F0F8
:1001B000010F18BFFB1A43F0010318477C600000D1
:1001C0009C600000103A24BF78C878C1FAD8520762
:1001D00024BF30C830C144BF04680C6070470000C1
:1001E0000023002400250026103A28BF78C1FBD840
:1001F000520728BF30C148BF0B6070471FB506F0DB
:1002000000F81FBD10B510BD00F0D0F81146FFF783
:10021000F5FF05F04BFE00F0EEF803B4FFF7F2FF38
:1002200003BC00F0F5F80000094880470948004782
:10023000FEE7FEE7FEE7FEE7FEE7FEE7FEE7FEE796
:10024000FEE7FEE704480549054A064B70470000F3
:10025000755300088901000810070020100D0020C8
:10026000100900201009002053EA020C00F06980F8
:100270002DE9F04B4FF00006002B1FBFB3FA83F5BA
:1002800003FA05F424FA05F65E4012BF1643B2FAEB
:1002900082F502FA05F4C5F120051EBF22FA05FC1D
:1002A00044EA0C04203556EA044C4FEA144418BFC3
:1002B000641C4FF000084FF00009904271EB030CF2
:1002C00039D3002919BFB1FA81F701FA07F6B0FA5C
:1002D00080F700FA07F6C7F120071EBF20FA07FCD7
:1002E00046EA0C062037B6FBF4FCA7EB0507103FE7
:1002F00007F01F0BCBF120062CFA06F60CFA0BFBCD
:1003000044BFB3460026202FA4BF5E464FF0000B2B
:100310005BEA060C08BF4FF0010B19EB0B0948EB29
:100320000608ABFB027C06FB02CC0BFB03CCC01B1C
:1003300071EB0C01C1E70B46024641464846BDE859
:10034000F08B13B5084318BF4FF0FF300146AFF3F1
:100350000080BDE81C4070474FF0000200B5134616
:1003600094469646203922BFA0E80C50A0E80C50D5
:10037000B1F12001BFF4F7AF090728BFA0E80C5086
:1003800048BF0CC05DF804EB890028BF40F8042B7F
:1003900008BF704748BF20F8022B11F0804F18BFEC
:1003A00000F8012B7047704770477047754600F0A2
:1003B0002BF8AE4605006946534620F007008546F7
:1003C00018B020B5FFF73EFFBDE820404FF0000613
:1003D0004FF000074FF000084FF0000BAC46ACE8C0
:1003E000C009ACE8C009ACE8C009ACE8C00921F01C
:1003F00007018D46704710B50446AFF300802046D4
:10040000BDE81040FFF709BF00487047100000200A
:1004100001491820ABBEFEE726000200704700002D
:1004200080B58CB040F2DD40C2F200000078014699
:10043000039140B1FFE70398012848D0FFE70398F4
:10044000022859D07CE040F2E040C2F2000000787F
:10045000E0B3FFE740F2E040C2F20000002101708B
:1004600040F2DF40C2F20000027840F2DE40C2F209
:100470000000027040F2DC42C2F20002117000780B
:1004800038B9FFE740F2DD41C2F2000102200870F6
:100490001BE040F2DA41C2F200013220088040F253
:1004A000D841C2F20001002008800020C4F20200FE
:1004B0004FF480710122029202F0C8FD029840F2CE
:1004C000DD41C2F200010870FFE7FFE739E040F2CA
:1004D000DC40C2F20000007840F2DE41C2F20001CE
:1004E0000978884207DBFFE740F2DD41C2F20001F4
:1004F00002200870FFE724E044F64F30ADF8120008
:1005000000200190069040F20111C0F201210791F4
:1005100004210891099002210A918DF82C0040F2E3
:100520000050C2F2000006A90DF1120205AB01F065
:100530004DF9019840F2DD41C2F20001087000E07F
:10054000FFE70CB080BD0000FFE7FEE780B540F29A
:100550000050C2F2000001F0C3FB80BD80B540F244
:100560000050C2F2000001F0BBFB80BD80B540F23C
:100570002850C2F2000001F0B3FB80BD80B540F20C
:100580002850C2F2000001F0ABFB80BD83B00290A6
:100590000191029800788DF8030001980078029983
:1005A00008709DF803000199087003B070470000BF
:1005B00084B08DED020ACDED010A8DED001A9DED9E
:1005C000020A9DED011AB4EE410AF1EE10FA03DAC7
:1005D000FFE7019803900FE09DED020A9DED001AE0
:1005E000B4EE410AF1EE10FA03DDFFE70098039044
:1005F00002E002980390FFE79DED030A04B0704704
:1006000083B08DED010ACDED000A9DED010A9DED4F
:10061000001AB4EE410AF1EE10FA03DDFFE700988C
:10062000029015E09DED010A9DED001AB1EE411A10
:10063000B4EE410AF1EE10FA07DAFFE79DED000A89
:10064000B1EE400A8DED020A02E001980290FFE748
:100650009DED020A03B0704710B584B00390039873
:10066000B0F844000399B1F86010401A0399A1F85A
:1006700046000398B0F94600012805DBFFE7039820
:10068000B0F94600029005E00398B0F946004042F8
:100690000290FFE70298B0F5805F12DDFFE7039854
:1006A000B0F846300398B0F946104FF0FF300029FB
:1006B000C8BF012003998A8800FB1230A1F84600C8
:1006C000FFE70398B0F946200399886C10448864CA
:1006D000039890ED120AB8EEC00A9FED251A20EE9D
:1006E000010A8DED010A0398818800EE101AB8EE18
:1006F000400A8DED000A00F0CFFE9DED001AB0EE2D
:10070000402A9DED010A21EE021A80EE010A0398AB
:1007100080ED0E0A03984078C00730B1FFE70398D8
:10072000806C0399C1F89000FFE7039890F86C0083
:10073000C00740B1FFE7039800F0C8FC0399002010
:1007400081F86C00FFE70399486B8A6BCB6BD1F89B
:1007500040C0D1F844E08C6C4C66C1F860E0C1F850
:100760005CC08B654A650865C86C886604B010BDBE
:100770000000B44380B58AB0099000200090089032
:100780000790069005900490039002908DF8070062
:1007900005900690082107918DF8200009980078AF
:1007A00004280CD8FFE74FF40070039009980178F3
:1007B0006FF0010000EB41008DF807000BE040F204
:1007C000FF100390099801786FF0090000EB4100D9
:1007D0008DF80700FFE70998018B9DF8072040F28C
:1007E000A440C2F2000081529DF807100844411C49
:1007F000FFF7CCFE09980078042805D0FFE7099898
:10080000007808280BD1FFE700F0BAF840F2A442C4
:10081000C2F2000203A902AB00F0D8FFFFE70AB062
:1008200080BD000080B584B000200390FFE70398EE
:10083000032800F2A280FFE7039840F27402C2F29C
:1008400000024FF4867100FB01204078C0070028A9
:1008500000F07780FFE7039840F27402C2F20002D2
:1008600000924FF48671019100FB012000F010FA14
:10087000009A0199039800FB012000F09FFC009A68
:100880000199039800FB0120C078014602910428D9
:1008900055D80299DFE801F00314202C38000398A2
:1008A00040F27402C2F200024FF4867100FB012391
:1008B00000201883039800FB0120FFF75BFF58E03E
:1008C000039840F27402C2F200024FF4867100FBFA
:1008D000012000F00BFC33E0039840F27402C2F2F6
:1008E00000024FF4867100FB012000F049FA27E076
:1008F000039840F27402C2F200024FF4867100FBCA
:10090000012000F095FC1BE0039840F27402C2F253
:1009100000024FF4867100FB0120B0F9180000EED0
:10092000100AB8EEC00A039800FB0120B0F91400C9
:1009300001EE100AF8EEC10AFFF762FE00E0FFE7E1
:100940000BE0039840F27402C2F200024FF4867189
:1009500000FB012100200883FFE7039840F27402A6
:10096000C2F200024FF4867100FB0120FFF702FF84
:10097000FFE703980130039059E704B080BD000001
:1009800040F22850C2F2000070470000F0B5A7B056
:100990004FF4007025904FF07E5123910020C4F257
:1009A000102024904FF40050ADF8880041F29412CA
:1009B000ADF8982040F2FF1220921E9149F69A114C
:1009C000C4F299111F91ADF8740042F21070ADF8A5
:1009D000840001218DF85B108DF872100020C4F2A4
:1009E000873017900020CCF2873018908DF859107E
:1009F0008DF85A104FF4D7701A90002007908DF898
:100A000058004FF4C872ADF8642040F6B832ADF823
:100A100070200A22ADF86C208DF86E108DF8500011
:100A20008DF851008DF852008DF853008DF8540068
:100A30008DF855008DF8560010901190129013907B
:100A40000D900E900F900C90FFE70C98032870D833
:100A5000FFE70C9840F27403C2F2000305934FF4D1
:100A60008672069200FB0231012048700C9800FB50
:100A70000231002088700C9901FB023C1499DDF8CA
:100A800053E0CCF86FE0CCF86C100C9901FB023C01
:100A90001699DDF85CE0189C199D1A9E1B9FCCF8F6
:100AA0008870CCF88460CCF88050CCF87C40CCF8CE
:100AB00078E0CCF874101C99CCF88C100C9901FBE0
:100AC000023C1099DDF844E0129C139DCCF89C5038
:100AD000CCF89840CCF894E0CCF890100C9901FB3D
:100AE000023C0D99DDF838E00F9CCCF8A840CCF81A
:100AF000A4E0CCF8A0100C9901FB023108830C99FA
:100B000001FB0231C8610C9901FB023108840C9988
:100B100001FB0231C8620C9901FB023188640C9917
:100B200001FB0231A1F86000FFE70C9801300C9046
:100B30008BE700200B90FFE70B98002821D2FFE7FE
:100B40000B9A501C4FF4867102FB01F340F27402C1
:100B5000C2F20002D0540B9800FB01212298239A84
:100B6000249BDDF894C0DDF898E0C1F814E0C1F8EA
:100B700010C0CB608A604860FFE70B9801300B9093
:100B8000DAE700200A90FFE70A98032821D8FFE758
:100B90000A9A501C4FF4867102FB01F340F2740272
:100BA000C2F20002D0540A9800FB01211D981E9A3F
:100BB0001F9BDDF880C0DDF884E0C1F814E0C1F8C7
:100BC00010C0CB608A604860FFE70A9801300A9045
:100BD000DAE700200990FFE7099803282AD8FFE701
:100BE000099840F27402C2F2000202924FF4867138
:100BF000039100FB0120AC309FED200ADFED200ABD
:100C00009FED201A0021049104F054FA029B039AEC
:100C10000499099800FB0230DC30B1EE060ADFEDE2
:100C20001A0A9FED1A1A04F045FAFFE709980130F5
:100C30000990D1E700200890FFE7089803281BD807
:100C4000FFE708984FF486710191414340F2740028
:100C5000C2F200000090405C00F06CF8009B019A2A
:100C6000002818BF0320089901FB02318870FFE7B4
:100C7000089801300890E0E727B0F0BD295C8F3D6F
:100C80000AD7A33B000000009A99993E0AD7233C5B
:100C900081B000900098B0F94600042825DCFFE7F9
:100CA0000098B0F9340040F6B93188421DDBFFE707
:100CB000009AD2F8A400411CC2F8A410652813D3EE
:100CC000FFE700990020C1F8A4000099012081F8F5
:100CD0006E00009890F88E00C00720B1FFE70099E1
:100CE00000208870FFE7FFE704E000990020C1F8CA
:100CF000A400FFE7009AD2F8A000411CC2F8A0109F
:100D0000332815D3FFE7009AD2F8A800411CC2F897
:100D1000A81015280BD3FFE700990020C1F8A80000
:100D2000009988700099012081F86D00FFE7FFE7C6
:100D300001B0704782B08DF8060000200090FFE7F8
:100D40000098A0B9FFE7009946F23420C0F60000F1
:100D5000405C9DF80610884204D1FFE701208DF821
:100D6000070008E0FFE7009801300090E8E7002066
:100D70008DF80700FFE79DF8070002B070470000FC
:100D800080B586B00590059890ED0E0A059890ED17
:100D90001E1AB4EE410AF1EE10FA0CDCFFE70598DA
:100DA00090ED0E0A059890ED1F1AB4EE410AF1EE8F
:100DB00010FA14DAFFE70599002008830599887076
:100DC000059948700599012081F872000598AC30AA
:100DD00004F034FA0598DC3004F030FACDE00598E0
:100DE00090F87500C00770B1FFE7059890ED070A0D
:100DF000059890ED1E1AD0ED1F0AFFF7D9FB059854
:100E000080ED070AFFE7059890ED070A8DED020ACD
:100E1000059800F041FBB0EE401A9DED020A20EE6D
:100E2000010A0598818801EE101AB8EE411A20EEE9
:100E3000010A9FED531A80EE010ABDEEC00A80ED53
:100E40000B0A059890ED0B0AB8EEC00A059880EDE4
:100E5000320A059890ED120AB8EEC00A059880EDA6
:100E6000330A0598AC3004F04FF98DED040A05986B
:100E700090F87600C007002845D0FFE7059890ED70
:100E8000210AB8EEC00A8DED010A00F005FBB0EEB4
:100E9000401A9DED010A20EE010A8DED030A9DED39
:100EA000040A9DED031AB4EE410AF1EE10FA0CDDCE
:100EB000FFE7059890ED2E0A9FED321A20EE010A09
:100EC00080ED2E0A039804901CE09DED040A9DED30
:100ED000031AB1EE411AB4EE410AF1EE10FA10DA3B
:100EE000FFE7059890ED2E0A9FED261A20EE010AE5
:100EF00080ED2E0A9DED030AB1EE400A8DED040A45
:100F0000FFE7FFE7FFE704980599C1F8F8000598A7
:100F1000B0F93C0000EE100AB8EEC00A8DED000AF0
:100F2000059800F0B9FAB0EE401A9DED000A20EEE7
:100F3000010A059880ED3F0A0598DC3004F0E4F8DA
:100F4000BDEEC00A10EE100A059908830598B0F9A5
:100F5000180000EE100AB8EEC00A0598B0F91400A7
:100F600001EE100AF8EEC10AFFF74AFBBDEEC00A17
:100F700010EE100A05990883FFE706B080BD00BF98
:100F80000000B4436666663FB0B58CB0129CDDF8D5
:100F900044E0DDF840C0139D0B94CDF828E0CDF877
:100FA00024C00893079206910590079868B9FFE757
:100FB000089850B9FFE70598B0F5007F05D9FFE71D
:100FC0000598B0F5027F01D9FFE779E00598A0F513
:100FD00000708DF813009DF81300052801DBFFE772
:100FE0006EE09DF8130040F27402C2F200024FF46A
:100FF000867110FB0120A0F586700390139801788C
:10100000407840EA01200399A1F8440013988178C0
:10101000C07840EA0120ADF80A00139801794079C0
:1010200040EA0120039988860398007804F0CEFEF8
:10103000A0B1FFE713988079039981F84C000398D9
:10104000B0F9340000EE100AB8EEC00A9FED1E1A87
:1010500020EE010A039880ED100A12E00398B0F91F
:10106000340000EE100AB8EEC00A9FED161A80EEAA
:10107000010AB2EE041A20EE010A039880ED100A6C
:10108000FFE7BDF90A0000EE100AB8EEC00A8DEDC8
:10109000010A039800F000FAB0EE401A9DED010A33
:1010A00080EE010ABDEEC00A10EE100A039988878F
:1010B00003990020C1F8A0000398FFF7CDFAFFE7DD
:1010C0000CB0B0BD00401C46E5FF9F3A81B00090D7
:1010D0000099002081F86C00009988630099886469
:1010E0000099C1F8900001B07047000080B584B04D
:1010F0000390039890F87400C00790B1FFE703983D
:1011000090ED3E0AB0F9800001EE100AF8EEC10A37
:10111000FFF776FABDEEC00A10EE100A03990884B4
:10112000FFE70398B0F9200000EE100AB8EEC00AFD
:101130008DED010A039800F0AFF9B0EE401A9DED75
:10114000010A20EE010A039880ED3E0A0398B0F9E7
:101150003C0000EE100AB8EEC00A8DED020A0398BA
:1011600000F09AF9B0EE401A9DED020A20EE010A55
:10117000039880ED3F0A0398DC3003F0C5FFBDEE15
:10118000C00A10EE100A039908830398B0F91800FA
:1011900000EE100AB8EEC00A0398B0F9140001EE90
:1011A000100AF8EEC10AFFF72BFABDEEC00A10EEE6
:1011B000100A0399088304B080BD000080B582B096
:1011C0000190019880780199C97888422DD0FFE775
:1011D00001988078022807D1FFE7019890F8710004
:1011E000C00708B9FFE720E0019880780199C8702E
:1011F0000199002000900883019908840198806B70
:101200000199C8610198AC3004F018F80198DC30FD
:1012100004F014F80098019981F86F00019981F8A1
:101220006D00019981F86E00FFE702B080BD0000FB
:1012300080B588B007900798B0F9881000EE101AB2
:10124000B8EEC00A8DED020A00F026F9B0EE401AA1
:101250009DED020A20EE010A079890F98A1001EE2E
:10126000101AB8EEC11A20EE010A80ED3E0A079866
:10127000B0F93C0000EE100AB8EEC00A8DED030A8A
:10128000079800F009F9B0EE401A9DED030A20EE30
:10129000010A079880ED3F0A0798DC3003F034FF1D
:1012A000BDEEC00A10EE100A079908830798B0F93E
:1012B000180000EE100AB8EEC00A0798B0F98C00CA
:1012C00001EE100AF8EEC10AFFF79AF9BDEEC00A66
:1012D00010EE100A079908830798B0F9881000EEFD
:1012E000101AB8EEC00A8DED040A00F0D5F8B0EE81
:1012F000401A9DED040A20EE010A0798808801EE4D
:10130000100AB8EE411A20EE010A9FED441A80EE51
:10131000010A8DED060A9DED060AB0EE081A80EE70
:10132000010A8DED050A9DED050AB0EE001AB4EE36
:10133000410AF1EE10FA04DAFFE74FF08040059021
:10134000FFE70798B0F94600012805DBFFE707989B
:10135000B0F94600019005E00798B0F94600404218
:101360000190FFE7019800EE100AB8EEC00A9DED6B
:10137000051AB4EE410AF1EE10FA28DAFFE70799F0
:10138000D1F894000130C1F8940097281ED3FFE7EC
:101390000798AC3003F052FF0798DC3003F04EFFA3
:1013A0000798FFF793FE079900200883079A012109
:1013B00082F86F10079A82F87110079948700799A0
:1013C000C1F894000799C1F89C00FFE704E0079971
:1013D0000020C1F89400FFE70799D1F89C00013084
:1013E000C1F89C0040F6C511884214D3FFE7079866
:1013F000AC3003F023FF0798DC3003F01FFF0799A0
:101400000020088307998870079A012182F87010DC
:1014100007994870FFE708B080BD00BF00606A47C9
:1014200080B540F25050C2F2000001F0FDF980BDDD
:1014300084B00390029101920093039801680868B8
:1014400020F4802008600098039909684860039898
:101450008068402809D1FFE70198039909688860EE
:10146000029803990968C86008E00298039909681E
:101470008860019803990968C860FFE704B0704765
:101480007047000080B54FF4006001F0E7FB80BDBD
:1014900072B6FFE7FEE7000081B00090009890ED83
:1014A000020A90ED031A20EE010A01B07047000015
:1014B00080B586B08DF817008DF816108DF81520C0
:1014C0009DF8170001460491C8B1FFE70498012870
:1014D0001BD0FFE7049809284CD0FFE704980A289E
:1014E00059D0FFE704980B287BD0FFE704980C281D
:1014F00000F0A380FFE70498FF2827D0B0E09DF814
:101500001700002103F0ACFEABE09DF816000128A7
:101510000BD1FFE740F27401C2F20001012081F813
:101520001902022081F81A0209E040F27401C2F2A5
:101530000001002081F8190281F81A02FFE79DF8E6
:1015400017009DF8161003F08BFE8AE040F274023B
:10155000C2F20002012082F81902032182F81A1255
:10156000002104F015FE9DF817009DF8161003F0F9
:1015700077FE76E040F27400C2F200000021C0F86D
:101580003412012004F004FE9DF817009DF8161097
:1015900003F066FE65E040F2FE40C2F20000007813
:1015A00060B9FFE701210391084604F0F1FD0398BB
:1015B00040F2FE41C2F2000108700BE00120002160
:1015C000029104F0E5FD029840F2FE41C2F20001F2
:1015D0000870FFE79DF817009DF8161003F040FE15
:1015E0003FE040F2E260C2F20000007870B9FFE72D
:1015F00040F27401C2F200010020C1F8340240F24E
:10160000E261C2F20001012008700FE040F27401B3
:10161000C2F200010020CCF28C20C1F8340240F26A
:10162000E261C2F2000100200870FFE79DF8170098
:101630009DF8161003F014FE13E001200021019123
:1016400004F0A6FD019840F27401C2F20001C1F855
:1016500034029DF817009DF8161003F001FE00E01B
:10166000FFE706B080BD000084B08DF80F00029146
:101670008DF8072040F2F940C2F2000000780130F6
:1016800000F007008DF806009DF8060040F2FB41CF
:10169000C2F200010978884208D1FFE740F2FA411E
:1016A000C2F2000108780130087030E09DF80F00A8
:1016B00040F2F941C2F20001097801EB410240F227
:1016C000E141C2F200018854029820B1FFE702987C
:1016D0000078009002E000200090FFE7009840F2C0
:1016E000F941C2F200010A7802EB420340F2E14202
:1016F000C2F20002134458709DF807000B7803EB08
:1017000043031A4490709DF806000870FFE704B088
:101710007047000080B582B0FFE740F2FB40C2F2A4
:101720000000007840F2F941C2F2000109788842D5
:1017300020D0FFE740F2FB41C2F20001087800EB45
:10174000400340F2E142C2F20002D018D25AADF892
:10175000042080788DF806000878013000F007003A
:1017600008709DF804009DF805109DF80620FFF70D
:101770009FFED2E702B080BD84B002900191029832
:1017800090F820008DF803009DF80300012805D093
:10179000FFE79DF8030002280AD1FFE7019A0298AB
:1017A000016848691043486100208DF80F0008E087
:1017B0000299486A40F48020486201208DF80F00A9
:1017C000FFE79DF80F0004B07047000088B0069056
:1017D000059104920393069890F820008DF8070075
:1017E00006980068806800900598806808B9FFE74F
:1017F00000E0FFE79DF80700012806D0FFE79DF80D
:101800000700022840F08080FFE79DF803004007B2
:1018100000280CD4FFE79DF803000007002806D439
:10182000FFE79DF80300C006002864D5FFE7009895
:10183000C0F301600290029901208840039908607A
:101840000598806868B9FFE705980168C06840EAB4
:10185000415006990968029A01EB0211C1F8800112
:101860000EE005994A688868C96840EAC2000843E2
:1018700006990968029A01EB0211C1F88001FFE79D
:101880000598006906990968029A01EB0211C1F8EE
:1018900084010598007D01280CD1FFE706980068B7
:1018A000029900EB0111D1F8840140F48070C1F875
:1018B0008401FFE70498406806990968029A01EBE1
:1018C0000211C1F88C010498006806990968029A0F
:1018D00001EB0211C1F8880106980068029900EB3B
:1018E0000111D1F8800140F00100C1F88001002011
:1018F0008DF81F0011E00699486A40F40010486214
:1019000001208DF81F0008E00699486A40F4802005
:10191000486201208DF81F00FFE79DF81F0008B006
:101920007047000086B004900391049890F820005E
:101930008DF803009DF80300012806D0FFE79DF80D
:101940000300022840F0B080FFE746F20040C4F2F6
:10195000000001900199D1F8000240F00100C1F8A7
:1019600000020199D1F8000220F47C50C1F8000275
:101970000398426A0199D1F8000240EA0220C1F8B6
:1019800000020398406900F01F0101208840029086
:10199000029A0199D1F81C029043C1F81C020398E5
:1019A000C069F0B9FFE7029A0199D1F80C0290439F
:1019B000C1F80C02039A9088D168526940EA01404C
:1019C000019901EBC201C1F84002039A10889168A5
:1019D000526940EA0140019901EBC201C1F8440299
:1019E000FFE70398C06901281ED1FFE7029A019919
:1019F000D1F80C021043C1F80C02039A90881168C8
:101A0000526940EA0140019901EBC201C1F840026C
:101A1000039A90899168526940EA0140019901EB6B
:101A2000C201C1F84402FFE70398806940B9FFE7AB
:101A3000029A0199D1F804029043C1F8040207E028
:101A4000029A0199D1F804021043C1F80402FFE799
:101A50000398006940B9FFE7029A0199D1F814028E
:101A60009043C1F8140207E0029A0199D1F81402D8
:101A70001043C1F81402FFE70398006A012808D157
:101A8000FFE7029A0199D1F81C021043C1F81C0229
:101A9000FFE70199D1F8000220F00100C1F800022F
:101AA00000208DF8170008E00499486A40F480206F
:101AB000486201208DF81700FFE79DF8170006B077
:101AC0007047000081B0009001B0704786B004906C
:101AD000039102920193049890F820008DF803007E
:101AE0009DF80300012806D0FFE79DF803000228B7
:101AF00040F0E880FFE7039880B9FFE704980068AA
:101B0000C068800748B9FFE70499486A40F40010AC
:101B1000486201208DF81700DDE00FE004980068AE
:101B20000069800748B9FFE70499486A40F400104B
:101B3000486201208DF81700CDE0FFE704980068A7
:101B4000039900EB0110D0F8B00100F004000299F5
:101B500088600298806858B9FFE704980068039984
:101B600000EB0110D0F8B001400D029908600AE0C6
:101B700004980068039900EB0110D0F8B001C00888
:101B800002994860FFE704980068039900EB011090
:101B9000D0F8B00100F002000299C8600498006813
:101BA000039900EB0110D0F8B40100F00F000828F1
:101BB00004D3FFE70299082008610BE0049800684D
:101BC000039900EB0110D0F8B40100F00F00029966
:101BD0000861FFE704980068039900EB0110D0F852
:101BE000B40180B2000A02998861049800680399E0
:101BF00000EB0110D0F8B401000C02994861049880
:101C00000068039900EB0110D0F8B8010199087041
:101C100004980068039900EB0110D0F8B801000A9D
:101C20000199487004980068039900EB0110D0F8FE
:101C3000B801000C0199887004980068039900EBC2
:101C40000110D0F8B801000E0199C870049800681E
:101C5000039900EB0110D0F8BC01019908710498B8
:101C60000068039900EB0110D0F8BC01000A01994B
:101C7000487104980068039900EB0110D0F8BC018A
:101C8000000C0199887104980068039900EB011019
:101C9000D0F8BC01000E0199C871039838B9FFE76C
:101CA00004980168C86840F02000C86006E0049805
:101CB0000168086940F020000861FFE700208DF806
:101CC000170008E00499486A40F480204862012027
:101CD0008DF81700FFE79DF8170006B07047000069
:101CE00080B58AB009900020089009980068406982
:101CF0000790099800684068069009980068806815
:101D0000059009980068C068049009980068006907
:101D1000039009980068806902909DF81C00C00734
:101D2000002800F09480FFE79DF81400C00758B326
:101D3000FFE709980168012088609DF8140080077A
:101D4000002804D5FFE7099800F0BEFC1BE09DF8D1
:101D500014004007002805D5FFE7089840F400600C
:101D600008900FE09DF814000007002805D5FFE754
:101D7000089840F48050089003E0099800F0A0FC17
:101D8000FFE7FFE7FFE7FFE79DF81500C00760B337
:101D9000FFE7099801684FF4807088609DF815008E
:101DA0008007002804D5FFE7099800F095FC1BE0A8
:101DB0009DF815004007002805D5FFE7089840F476
:101DC000005008900FE09DF815000007002805D589
:101DD000FFE7089840F48040089003E0099800F07D
:101DE00077FCFFE7FFE7FFE7FFE79DF81600C00776
:101DF00060B3FFE7099801684FF4803088609DF870
:101E000016008007002804D5FFE7099800F06CFC55
:101E10001BE09DF816004007002805D5FFE708984D
:101E200040F4004008900FE09DF8160000070028DD
:101E300005D5FFE7089840F48030089003E0099842
:101E400000F04EFCFFE7FFE7FFE7FFE7FFE79DF845
:101E50001C000007002810D5FFE79DF81000C00601
:101E6000002809D5FFE7089840F400700890099809
:101E700001681020C860FFE7FFE79DF81C004007DD
:101E800000280FD5FFE79DF810000007002808D5AF
:101E9000FFE7099801680820C860099800F0E2FA95
:101EA000FFE7FFE79DF81C00800700280BD5FFE740
:101EB00009980068C068800720B1FFE7099800F022
:101EC000D5FAFFE7FFE79DF81C004006002810D573
:101ED000FFE79DF80C00C006002809D5FFE7089829
:101EE00040F4806008900998016810200861FFE7BD
:101EF000FFE79DF81C00800600280FD5FFE79DF83E
:101F00000C000007002808D5FFE7099801680820A1
:101F10000861099800F082FBFFE7FFE79DF81C00CD
:101F2000C00600280BD5FFE7099800680069800704
:101F300020B1FFE7099800F075FBFFE7FFE79DF888
:101F40001E00800700280FD5FFE79DF81800C00687
:101F5000002808D5FFE70998016810204860099813
:101F600000F064FBFFE7FFE79DF81E00C00778B1B3
:101F7000FFE79DF818000007002808D5FFE709983B
:101F8000016808204860099800F0B2FBFFE7FFE70E
:101F90009DF81D000006002840F18D80FFE79DF8A8
:101FA00018004007002840F18180FFE79DF81D00E0
:101FB000C00750B1FFE79DF80800C00728B1FFE750
:101FC000089840F001000890FFE79DF81D00800789
:101FD00000280BD5FFE79DF808008007002805D5ED
:101FE000FFE7089840F002000890FFE79DF81D0009
:101FF000400700280BD5FFE79DF8080040070028A0
:1020000005D5FFE7089840F004000890FFE79DF829
:102010001D000007002848D5FFE79DF8080010F0D4
:10202000700F42D0FFE7029800F070000146019166
:10203000102814D0FFE70198202815D0FFE7019859
:10204000302816D0FFE70198402817D0FFE7019805
:10205000502818D0FFE70198602819D01DE0089893
:1020600040F00800089019E0089840F0100008902F
:1020700014E0089840F0200008900FE0089840F025
:10208000400008900AE0089840F08000089005E0C1
:10209000089840F48070089000E0FFE70998016814
:1020A000886920F070008861FFE7FFE70998016800
:1020B00004204860FFE7089848B1FFE7089A0999AB
:1020C000486A104348620998FFF7FCFCFFE70AB032
:1020D00080BD000080B584B00290029820B9FFE76F
:1020E00001208DF80F00E0E0029890F8200020B960
:1020F000FFE7029800F0DEF8FFE702980168086841
:1021000040F00100086000F0B9FF0190FFE702987D
:1021100000684068C007A8B9FFE700F0AFFF019969
:10212000401A0B280DD3FFE70299486A40F40030AB
:1021300048620299052081F8200001208DF80F00E7
:10214000B3E0E4E702980168086820F00200086044
:1021500000F094FF0190FFE7029800684068800754
:10216000002815D5FFE700F089FF0199401A0B28D8
:102170000DD3FFE70299486A40F4003048620299A3
:10218000052081F8200001208DF80F008DE0E3E7A5
:102190000298007E012807D1FFE7029801680868CD
:1021A00040F08000086006E002980168086820F0AE
:1021B00080000860FFE70298407E012807D1FFE712
:1021C00002980168086840F04000086006E0029844
:1021D0000168086820F040000860FFE70298807EF0
:1021E000012807D1FFE702980168086840F0200045
:1021F000086006E002980168086820F02000086086
:10220000FFE70298C07E012807D1FFE70298016826
:10221000086820F01000086006E00298016808686D
:1022200040F010000860FFE70298007F012807D106
:10223000FFE702980168086840F00800086006E0BF
:1022400002980168086820F008000860FFE702981B
:10225000407F012807D1FFE702980168086840F035
:102260000400086006E002980168086820F0040095
:102270000860FFE7029B19685A689868D3F80CC099
:1022800040EA0C00D3F810C040EA0C005B69184328
:10229000013A1043C861029900204862029A012164
:1022A00082F820108DF80F00FFE79DF80F0004B0B2
:1022B00080BD000080B594B0139000201290119062
:1022C00010900F900E901398006846F20041C4F2EF
:1022D0000001884254D1FFE740F2AC40C2F2000056
:1022E0000168013101600068012812D1FFE7FFE7B2
:1022F00000200D9043F64000C4F20200016841F056
:1023000000710160006800F000700D900D98FFE70B
:10231000FFE7FFE700200C9043F63000C4F2020014
:10232000016841F001010160006800F001000C90BB
:102330000C98FFE74FF4C0500E9002200F90002041
:102340000790109003201190092012900020C4F2F1
:1023500002000EA900F09EFC079A142005900521AA
:10236000069100F059FF059800F04CFF0699079A76
:102370001520089000F050FF089800F043FF6EE031
:102380001398006846F60001C4F20001884265D146
:10239000FFE7FFE700200B9043F64000C4F2020085
:1023A000016841F080610160006800F080600B907E
:1023B0000B98FFE740F2AC40C2F200000168013127
:1023C00001600068012812D1FFE7FFE700200A90B2
:1023D00043F64000C4F20200016841F00071016060
:1023E000006800F000700A900A98FFE7FFE7FFE737
:1023F0000020099043F63000C4F20200016841F069
:1024000002010160006800F0020009900998FFE7EE
:1024100060200E9002200F90002003901090032067
:1024200011900920129040F20040C4F202000EA95F
:1024300000F030FC039A402001900521029100F049
:10244000EBFE019800F0DEFE0299039A4120049011
:1024500000F0E2FE049800F0D5FEFFE7FFE714B0BD
:1024600080BD000081B0009001B0704770B586B0AB
:1024700005900598006846F20041C4F200018842C8
:1024800074D1FFE7059840F2BC42C2F2000240F26C
:10249000B443C2F200030021FFF718FB002864D107
:1024A000FFE740F2BC40C2F20000806804285BD124
:1024B000FFE740F2BC40C2F20000406840F2011168
:1024C000C0F20211884211D1FFE740F2B440C2F2DB
:1024D0000000007840F2DF41C2F20001087040F2D3
:1024E000E041C2F20001012008703CE040F2BC4033
:1024F000C2F20000406840F20121C0F2021188429D
:1025000011D1FFE740F2B440C2F20000007840F27F
:10251000FC41C2F20001087040F2FD41C2F200012C
:10252000012008701EE040F2BC40C2F20000416889
:1025300040F20510C0F20100B0EB112F11D1FFE7FE
:1025400040F2BC41C2F2000148688DF813009DF8CA
:1025500013000A7C40F2B441C2F20001FFF784F894
:10256000FFE7FFE7FFE7FFE7FFE754E005980068B4
:1025700046F60001C4F2000188424BD1FFE70598FE
:1025800040F2BC42C2F2000240F2B443C2F2000385
:102590000021FFF79BFAE0BBFFE740F2BC40C2F22C
:1025A00000008068A0BBFFE740F2BC40C2F2000020
:1025B0000068B0F5007F2BD9FFE740F2BC40C2F2C3
:1025C00000000068B0F5027F22D8FFE740F2BC4E61
:1025D000C2F2000EDEF80000DEF80410DEF808207B
:1025E000DEF80C30DEF810C0DEF81440DEF81850CB
:1025F00040F2B446C2F20006EE46CEF80C60CEF8C9
:102600000850CEF80440CEF800C0FEF7BDFCFFE74E
:10261000FFE7FFE7FFE706B070BD000081B0009064
:1026200001B0704781B0009001B0704781B0009058
:1026300001B0704780B584B00290029890F82000F5
:1026400001282FD1FFE70299022081F8200002988B
:102650000168086820F00100086000F00FFD01909B
:10266000FFE7029800684068C007A8B1FFE700F0E4
:1026700005FD0199401A0B280DD3FFE70299486A1E
:1026800040F4003048620299052081F820000120C2
:102690008DF80F000FE0E4E70299002048628DF802
:1026A0000F0008E00299486A40F4002048620120C7
:1026B0008DF80F00FFE79DF80F0004B080BD00000B
:1026C00081B0009001B0704781B0009001B07047B8
:1026D00081B0009001B0704781B0009001B07047A8
:1026E00081B0009001B0704781B0009001B0704798
:1026F00081B0009001B0704780B584B0029002981C
:10270000806D019000F0BAFC0090029890F83500BE
:1027100002280DD0FFE7029980204865FFE7029963
:10272000002081F83400FFE701208DF80F0055E00C
:1027300002980168086820F0160008600298016895
:10274000486920F0800048610298006C20B9FFE7DA
:102750000298806C38B1FFE702980168086820F0A1
:1027600008000860FFE702980168086820F001008F
:102770000860FFE7029800680068C007C8B1FFE77B
:1027800000F07CFC0099401A062811D3FFE702995B
:10279000202048650299032081F83500FFE702995F
:1027A000002081F83400FFE703208DF80F0015E0CA
:1027B000E0E70298C16D3F20884001998860029946
:1027C000012081F83500FFE70299002081F83400EC
:1027D000FFE7FFE700208DF80F00FFE79DF80F00EF
:1027E00004B080BD82B00090009890F835000228B7
:1027F00007D0FFE700998020486501208DF8070089
:102800000EE00099052081F83500009801680868FD
:1028100020F001000860FFE700208DF80700FFE7C7
:102820009DF8070002B0704780B586B00590002083
:10283000039040F20000C2F20000006848F2B511B7
:10284000C1F64E31A0FB0110800A02900598806D00
:10285000019001980068049004980599C96DC840DA
:10286000000700281AD5FFE70598006800684007B0
:10287000002812D5FFE705980168086820F00400D9
:1028800008600598C16D0820884001998860059905
:10289000486D40F001004865FFE7FFE7049805999F
:1028A000C96DC840C007A0B1FFE70598006840693E
:1028B000000600280CD5FFE70598C16D012088406F
:1028C000019988600599486D40F002004865FFE76E
:1028D000FFE704980599C96DC8404007002814D542
:1028E000FFE7059800680068800700280CD5FFE71F
:1028F0000598C16D04208840019988600599486D4C
:1029000040F004004865FFE7FFE704980599C96DAA
:10291000C840C006002847D5FFE705980068006852
:10292000000700283FD5FFE70598C16D10208840BB
:1029300001998860059800680068400300281AD54E
:10294000FFE70598006800680003002809D4FFE746
:102950000598006C20B1FFE70598016C8847FFE7F8
:1029600008E00598806C20B1FFE70598816C8847E6
:10297000FFE7FFE716E0059800680068C00500283B
:1029800007D4FFE705980168086820F00800086090
:10299000FFE70598006C20B1FFE70598016C8847B8
:1029A000FFE7FFE7FFE7FFE704980599C96DC84017
:1029B0008006002840F18D80FFE7059800680068D8
:1029C000C006002840F18480FFE70598C16D2020F3
:1029D000884001998860059890F83500052834D121
:1029E000FFE705980168086820F016000860059860
:1029F0000168486920F0800048610598006C20B9A2
:102A0000FFE70598806C38B1FFE705980168086812
:102A100020F008000860FFE70598C16D3F2088405E
:102A2000019988600599012081F83500FFE7059933
:102A3000002081F83400FFE70598006D20B1FFE722
:102A40000598016D8847FFE77BE0059800680068FE
:102A5000400300281AD5FFE70598006800680003C6
:102A6000002809D4FFE70598406C20B1FFE70598DE
:102A7000416C8847FFE708E00598C06B20B1FFE78D
:102A80000598C16B8847FFE7FFE720E005980068DD
:102A90000068C005002811D4FFE7059801680868A0
:102AA00020F0100008600599012081F83500FFE74B
:102AB0000599002081F83400FFE7FFE70598C06B17
:102AC00020B1FFE70598C16B8847FFE7FFE7FFE705
:102AD000FFE70598406DA0B3FFE70598406DC0077C
:102AE00030B3FFE70599052081F8350005980168A6
:102AF000086820F001000860FFE7039801300390A8
:102B00000299884201D9FFE707E0FFE705980068CE
:102B10000068C0070028F0D1FFE70599012081F87F
:102B20003500FFE70599002081F83400FFE7FFE753
:102B30000598C06C20B1FFE70598C16C8847FFE796
:102B4000FFE706B080BD000080B588B00690059113
:102B50000492039300208DF80B000698806D01907D
:102B6000FFE7069890F83400012804D1FFE702201F
:102B70008DF81F0045E00699012081F83400FFE739
:102B8000FFE7069890F8350001282BD1FFE706995A
:102B9000022081F8350006990020486506980599BD
:102BA000049A039BFEF744FC0698C16D3F208840C1
:102BB0000199886006980168086840F0160008606E
:102BC0000698006C38B1FFE706980168086840F085
:102BD00008000860FFE706980168086840F00100F7
:102BE000086009E0FFE70699002081F83400FFE75C
:102BF00002208DF80B00FFE79DF80B008DF81F00F9
:102C0000FFE79DF81F0008B080BD000080B584B0CC
:102C1000039000F033FA029003980190019801307C
:102C200048B1FFE740F20400C2F2000001780198C9
:102C300008440190FFE7FFE700F020FA0299401AEC
:102C40000199884201D2FFE7F6E704B080BD000099
:102C500081B0ADF8020001B07047000080B582B0CD
:102C6000ADF8060043F61440C4F201000068BDF858
:102C7000061008420CD0FFE7BDF8060043F61441E9
:102C8000C4F201010860BDF80600FFF7E1FFFFE7AD
:102C900002B080BD8EB00D900C9100200A9009907A
:102CA00008900B90FFE70B980F2800F2CC81FFE70C
:102CB0000B99012088400A900C9800680A990840F6
:102CC000099009980A99884240F0B881FFE70C986A
:102CD000406800F00300012807D0FFE70C98406827
:102CE00000F0030002282FD1FFE70D9880680890BC
:102CF0000B984100032000FA01F1089888430890DE
:102D00000C98C0680B99490000FA01F10898084333
:102D1000089008980D9988600D98406808900B9964
:102D2000012000FA01F10898884308900C98406847
:102D3000C0F300100B9900FA01F1089808430890BD
:102D400008980D994860FFE70C98406800F0030070
:102D5000032818D0FFE70D98C06808900B98410031
:102D6000032000FA01F10898884308900C988068C5
:102D70000B99490000FA01F1089808430890089857
:102D80000D99C860FFE70C98406800F00300022826
:102D900026D1FFE70D980B996FF0030202EA51016B
:102DA0000844006A08900B9800F0070081000F208B
:102DB00000FA01F10898884308900C9800690B9973
:102DC00001F00701890000FA01F108980843089012
:102DD00008980D990B9B02EA530211440862FFE721
:102DE0000D98006808900B984100032000FA01F14B
:102DF0000898884308900C98406800F003000B99ED
:102E0000490000FA01F108980843089008980D99C4
:102E100008600C9880798007002800F00E81FFE799
:102E2000FFE70020079043F64400C4F20200016867
:102E300041F480410160006800F4804007900798E9
:102E4000FFE70B9820F0030043F60801C4F20101EC
:102E5000405808900B9800F0030081000F2000FA02
:102E600001F10898884308900D980021C4F20201EE
:102E7000884203D1FFE7002006905EE00D9840F203
:102E80000041C4F20201884203D1FFE7012005900E
:102E900050E00D9840F60001C4F20201884203D1CF
:102EA000FFE70220049042E00D9840F60041C4F292
:102EB0000201884203D1FFE70320039034E00D981C
:102EC00041F20001C4F20201884203D1FFE704206D
:102ED000029026E00D9841F20041C4F202018842BE
:102EE00003D1FFE70520019018E00D9841F600019D
:102EF000C4F20201884203D1FFE7062000900AE0F5
:102F00000D9941F60042C4F202020820914208BF26
:102F100007200090FFE700980190FFE701980290DA
:102F2000FFE702980390FFE703980490FFE70498F7
:102F30000590FFE705980690FFE70698C0B20B9949
:102F400001F00301890000FA01F108980843089094
:102F500008980B9921F0030143F60802C4F201021C
:102F6000885043F60840C4F20100006808900999AF
:102F70000898884308900C988079C006002805D5E9
:102F8000FFE70999089808430890FFE7089843F677
:102F90000841C4F20101086043F60C40C4F201008C
:102FA0000068089009990898884308900C988079DF
:102FB0008006002805D5FFE709990898084308907E
:102FC000FFE7089843F60C41C4F20101086043F69C
:102FD0000440C4F2010000680890099908988843E9
:102FE00008900C9880798007002805D5FFE709999B
:102FF000089808430890FFE7089843F60441C4F294
:103000000101086043F60040C4F201000068089026
:1030100009990898884308900C988079C00728B1CE
:10302000FFE70999089808430890FFE7089843F6D6
:103030000041C4F201010860FFE7FFE7FFE70B98DA
:1030400001300B902FE60EB07047000082B0019067
:10305000ADF802108DF801209DF8010028B1FFE7BE
:10306000BDF802000199886105E0BDF80200000486
:1030700001998861FFE702B07047000040F20C70D0
:10308000C2F200000068704740F20400C2F2000083
:10309000027840F20C71C2F2000108681044086026
:1030A0007047000080B543F60041C4F20201086891
:1030B00040F400700860086840F4806008600868A8
:1030C00040F480700860032000F0C0F80F2000F08A
:1030D00005F800F071F8002080BD000080B58CB0CC
:1030E0000B90002005900490FFE70020019043F62C
:1030F0004400C4F20200016841F00101016000686F
:1031000000F0010001900198FFE706A803A900F074
:10311000D7F900F005FA4000059005984DF6836157
:10312000C4F21B31A0FB01014FF0FF3000EB9140D6
:10313000049040F2B050C2F200000021C4F201013C
:10314000016040F2E731C1600499416000210161F2
:103150008160816100F064FE8DF80B009DF80B002A
:1031600028BBFFE740F2B050C2F2000000F0E8FEDA
:103170008DF80B009DF80B00C0B9FFE7192000F097
:1031800041F80B980F280CD8FFE70B991920002263
:1031900000F042F80B9840F20801C2F2000108600A
:1031A00003E001208DF80B00FFE7FFE7FFE79DF844
:1031B0000B000CB080BD000082B0FFE70020019042
:1031C00043F64400C4F20200016841F4804101600A
:1031D000006800F4804001900198FFE7FFE70020BD
:1031E000009043F64000C4F20200016841F08051B3
:1031F0000160006800F0805000900098FFE702B086
:103200007047000080B582B08DF807009DF9070077
:1032100002F07CFD02B080BD80B586B08DF817004D
:10322000049103920020029002F088FD02909DF923
:103230001700019002980499039A01F005FF0146D6
:10324000019802F083FD06B080BD000080B582B019
:103250000190019802F09CFD02B080BD80B584B061
:1032600002900191029820B9FFE701208DF80F002C
:1032700021E1019843F60041C4F20201096801F01E
:103280000701884212D9FFE7019943F60040C4F2D2
:1032900002000170006800F007000199884204D024
:1032A000FFE701208DF80F0005E1FFE702980078A5
:1032B000800700282AD5FFE70298007840070028F9
:1032C00009D5FFE743F60801C4F20201086840F49B
:1032D000E0500860FFE7029800780007002809D551
:1032E000FFE743F60801C4F20201086840F46040B9
:1032F0000860FFE743F60801C4F20201086820F005
:10330000F000029A926810430860FFE70298007884
:10331000C00700286ED0FFE702984068012811D14D
:10332000FFE743F60000C4F20200006800F4003139
:103330000020B0EB514F04D1FFE701208DF80F00C2
:10334000B9E02CE002984068022805D0FFE7029817
:103350004068032811D1FFE743F60000C4F20200E1
:10336000006800F000710020B0EB516F04D1FFE75E
:1033700001208DF80F009EE010E043F60000C4F23B
:103380000200006800F002010020B0EB510F04D1F0
:10339000FFE701208DF80F008DE0FFE7FFE743F620
:1033A0000801C4F20201086820F00300029A526882
:1033B00010430860FFF762FE0090FFE743F6080045
:1033C000C4F20200006800F00C0002994968B0EBFA
:1033D000810F0ED0FFE7FFF751FE0099401A41F22E
:1033E0008931884204D3FFE703208DF80F0062E0A3
:1033F000E4E7FFE7019843F60041C4F202010968DF
:1034000001F00701884212D2FFE7019943F600401C
:10341000C4F202000170006800F0070001998842C0
:1034200004D0FFE701208DF80F0044E0FFE7029889
:103430000078400700280CD5FFE743F60801C4F2E6
:103440000201086820F4E050029AD2681043086034
:10345000FFE702980078000700280DD5FFE743F644
:103460000801C4F20201086820F46040029A12695F
:1034700040EAC2000860FFE700F064F843F6080184
:10348000C4F202010968C9B20A0946F21C21C0F659
:103490000001895CC84040F20001C2F200010860EE
:1034A00040F20800C2F200000068FFF717FE00209B
:1034B0008DF80F00FFE79DF80F0004B080BD0000FD
:1034C00082B00190009101990F20086043F6080036
:1034D000C4F20200016801F00301019A5160016821
:1034E00001F0F001019A9160016801F4E051019A44
:1034F000D160006800F46040C0080199086143F69B
:103500000040C4F20200006800F007000099086063
:1035100002B0704740F20000C2F20000006870473D
:1035200080B5FFF7F7FF43F60801C4F2020109680E
:1035300089B24A0B46F22C21C0F60001895CC840D2
:1035400080BD000080B586B00020059004900390F7
:10355000029043F60800C4F20200006800F00C007C
:103560000146019140B1FFE7019804280AD0FFE726
:10357000019808280CD04FE042F20040C0F2F4005D
:1035800002904FE047F64000C0F27D10029049E003
:1035900043F60400C4F20200016801F03F01059106
:1035A00000684002002813D5FFE743F60400C4F288
:1035B00002000068C0F3881047F64001C0F27D1198
:1035C000A0FB0101059A0023FCF74EFE049012E0D7
:1035D00043F60400C4F202000068C0F3881042F20F
:1035E0000041C0F2F401A0FB0101059A0023FCF7A1
:1035F0003BFE0490FFE743F60400C4F202000068BB
:1036000000F44031022000EBD1300390049803997C
:10361000B0FBF1F0029005E042F20040C0F2F4008D
:103620000290FFE7029806B080BD000080B586B02A
:103630000490049820B9FFE701208DF8170050E3AB
:1036400004980078C007002800F0A580FFE743F643
:103650000800C4F20200006800F00C00042813D037
:10366000FFE743F60800C4F20200006800F00C0017
:1036700008281ED1FFE743F60400C4F202000068E8
:103680004002002815D5FFE743F60000C4F202000F
:10369000006800F400310020B0EB514F08D0FFE784
:1036A0000498406820B9FFE701208DF8170018E35F
:1036B00070E0FFE704984068B0F5803F09D1FFE76C
:1036C00043F60001C4F20201086840F4803008604B
:1036D00020E004984068B0F5A02F0DD1FFE743F635
:1036E0000001C4F20201086840F480200860086804
:1036F00040F4803008600CE043F60001C4F202019F
:10370000086820F480300860086820F48020086091
:10371000FFE7FFE7FFE704984068E8B1FFE7FFF73E
:10372000ADFC0390FFE743F60000C4F2020000681E
:1037300000F400310020B0EB514F0CD1FFE7FFF750
:103740009DFC0399401A652804D3FFE703208DF8F8
:103750001700C6E2E7E71CE0FFF790FC0390FFE7E5
:1037600043F60000C4F20200006800F400310020BB
:10377000B0EB514F0CD0FFE7FFF780FC0399401AE4
:10378000652804D3FFE703208DF81700A9E2E7E7D7
:10379000FFE7FFE7FFE7049800788007002840F183
:1037A0009680FFE743F60800C4F20200006810F0BC
:1037B0000C0F13D0FFE743F60800C4F202000068C4
:1037C00000F00C0008282CD1FFE743F60400C4F2F7
:1037D000020000684002002823D4FFE743F60000FF
:1037E000C4F20200006800F002010020B0EB510FAB
:1037F00009D0FFE70498C068012804D0FFE7012042
:103800008DF817006DE243F60001C4F2020108686A
:1038100020F0F800049A126940EAC2000860FFE74D
:1038200054E00498C06870B3FFE70021C4F2472158
:1038300001200860FFF722FC0390FFE743F6000039
:10384000C4F20200006800F002010020B0EB510F4A
:103850000CD1FFE7FFF712FC0399401A032804D3A9
:10386000FFE703208DF817003BE2E7E743F600018E
:10387000C4F20201086820F0F800049A126940EAD4
:10388000C200086021E00021C4F247210020086046
:10389000FFF7F4FB0390FFE743F60000C4F20200D9
:1038A000006800F002010020B0EB510F0CD0FFE7E0
:1038B000FFF7E4FB0399401A032804D3FFE7032032
:1038C0008DF817000DE2E7E7FFE7FFE7FFE7049851
:1038D0000078000700284BD5FFE70498406918B32B
:1038E000FFE740F68061C4F2472101200860FFF73E
:1038F000C5FB0390FFE743F67400C4F202000068C2
:1039000000F002010020B0EB510F0CD1FFE7FFF7F0
:10391000B5FB0399401A032804D3FFE703208DF871
:103920001700DEE1E7E722E040F68061C4F24721BC
:1039300000200860FFF7A2FB0390FFE743F6740046
:10394000C4F20200006800F002010020B0EB510F49
:103950000CD0FFE7FFF792FB0399401A032804D32A
:10396000FFE703208DF81700BBE1E7E7FFE7FFE77C
:10397000049800784007002840F1CE80FFE700203F
:103980008DF8070043F64000C4F202000068C00052
:10399000002815D4FFE7FFE70020009043F6400021
:1039A000C4F20200016841F080510160006800F03B
:1039B000805000900098FFE701208DF80700FFE796
:1039C00047F20000C4F200000068C005002822D4BD
:1039D000FFE747F20001C4F20001086840F480707C
:1039E0000860FFF74BFB0390FFE747F20000C4F2CB
:1039F00000000068C00500280CD4FFE7FFF73EFB7D
:103A00000399401A032804D3FFE703208DF8170019
:103A100067E1EAE7FFE7FFE704988068012809D13A
:103A2000FFE743F67001C4F20201086840F00100AC
:103A300008601FE00498806805280DD1FFE743F671
:103A40007001C4F20201086840F0040008600868D0
:103A500040F0010008600CE043F67001C4F202017E
:103A6000086820F001000860086820F00400086081
:103A7000FFE7FFE7FFE704988068F8B1FFE7FFF78B
:103A8000FDFA0390FFE743F67000C4F202000068FD
:103A900000F002010020B0EB510F0ED1FFE7FFF75D
:103AA000EDFA0399401A41F28931884204D3FFE7C5
:103AB00003208DF8170014E1E5E71EE0FFF7DEFABA
:103AC0000390FFE743F67000C4F20200006800F0C4
:103AD00002010020B0EB510F0ED0FFE7FFF7CEFA46
:103AE0000399401A41F28931884204D3FFE7032049
:103AF0008DF81700F5E0E5E7FFE79DF807000128DE
:103B000009D1FFE743F64001C4F20201086820F042
:103B100080500860FFE7FFE704988069002800F004
:103B2000DC80FFE743F60800C4F20200006800F002
:103B30000C00082800F08580FFE7049880690228BF
:103B40005CD1FFE76021C4F2472100200860FFF745
:103B500095FA0390FFE743F60000C4F20200006804
:103B600000F000710020B0EB516F0CD0FFE7FFF7C1
:103B700085FA0399401A032804D3FFE703208DF840
:103B80001700AEE0E7E70499C869D1F820C04B6A96
:103B90008A6A40EA0C0040EA8310D2034FF6FF73B2
:103BA0009A43A2F580321043C96A40EA016043F6A5
:103BB0000401C4F2020108606021C4F2472101201F
:103BC0000860FFF75BFA0390FFE743F60000C4F2DA
:103BD0000200006800F000710020B0EB516F0CD1C2
:103BE000FFE7FFF74BFA0399401A032804D3FFE7D6
:103BF00003208DF8170074E0E7E721E06021C4F2AC
:103C0000472100200860FFF739FA0390FFE743F6E9
:103C10000000C4F20200006800F000710020B0EB68
:103C2000516F0CD0FFE7FFF729FA0399401A0328D8
:103C300004D3FFE703208DF8170052E0E7E7FFE722
:103C40004AE004988069012804D1FFE701208DF83B
:103C5000170046E043F60400C4F202000068029038
:103C600004988069012831D0FFE7029800F48000B1
:103C70000499C969884229D1FFE7029800F03F0002
:103C80000499096A884221D1FFE7029847F6C0717A
:103C900008400499496AB0EB811F17D1FFE70298E9
:103CA00000F440300499896AC9034FF6FF729143CA
:103CB000A1F58031884209D1FFE7029800F07060D9
:103CC0000499C96AB0EB016F04D0FFE701208DF8B9
:103CD000170006E0FFE7FFE7FFE700208DF8170079
:103CE000FFE79DF8170006B080BD000081B000908E
:103CF00001B0704781B0009001B0704785B003906B
:103D00000291FFE7039890F83C00012804D1FFE7F7
:103D100002208DF813007EE00399012081F83C0019
:103D2000FFE7FFE70399022081F83D000398006850
:103D3000406801900398006880680090019820F026
:103D40007000019002980168019808430190019861
:103D5000039909684860039800680021C4F20101D2
:103D600088423CD0FFE703980068B0F1804F36D01E
:103D7000FFE70398006840F20041C4F20001884266
:103D80002DD0FFE70398006840F60001C4F200015F
:103D9000884224D0FFE70398006840F60041C4F24F
:103DA000000188421BD0FFE70398006840F2004101
:103DB000C4F20101884212D0FFE70398006844F280
:103DC0000001C4F20101884209D0FFE703980068AE
:103DD00041F60001C4F2000188420ED1FFE70098CD
:103DE00020F08000009002984168009808430090FD
:103DF0000098039909688860FFE70399012081F81A
:103E00003D00FFE70399002081F83C00FFE7002018
:103E10008DF81300FFE79DF8130005B07047000010
:103E200080B582B00090009820B9FFE701208DF89E
:103E300007003FE0009890F83D0040B9FFE7009987
:103E4000002081F83C00009800F038F8FFE7009966
:103E5000022081F83D00009951F8040B01F0A4FA0A
:103E60000099012081F84600FFE70099012081F8C0
:103E70003E00009981F83F00009981F840000099C8
:103E800081F84100FFE7FFE70099012081F8420037
:103E9000009981F84300009981F84400009981F865
:103EA0004500FFE70099012081F83D0000208DF8D2
:103EB0000700FFE79DF8070002B080BD80B584B021
:103EC000039003980068B0F1804F1BD1FFE7FFE734
:103ED0000020029043F64000C4F20200016841F065
:103EE00001010160006800F0010002900298FFE704
:103EF0001C20009005210022FFF78EF90098FFF7A3
:103F000081F91BE00398006840F20041C4F200010F
:103F1000884212D1FFE7FFE70020019043F64000FE
:103F2000C4F20200016841F002010160006800F083
:103F3000020001900198FFE7FFE7FFE704B080BDB2
:103F400083B00190019890F83D00012804D0FFE76C
:103F500001208DF80B006AE00199022081F83D00F4
:103F600001980168C86840F00100C86001980068C5
:103F70000021C4F2010188423CD0FFE701980068AB
:103F8000B0F1804F36D0FFE70198006840F2004161
:103F9000C4F2000188422DD0FFE70198006840F686
:103FA0000001C4F20001884224D0FFE701980068B4
:103FB00040F60041C4F2000188421BD0FFE701989F
:103FC000006840F20041C4F20101884212D0FFE7CC
:103FD0000198006844F20001C4F20101884209D04E
:103FE000FFE70198006841F60001C4F20001884231
:103FF00012D1FFE701980068806800F00700009088
:104000000098062807D0FFE701980168086840F08B
:1040100001000860FFE706E001980168086840F0C9
:1040200001000860FFE700208DF80B00FFE79DF816
:104030000B0003B07047000080B586B00490039178
:1040400000208DF80B00FFE7049890F83C00012851
:1040500004D1FFE702208DF81700ABE0049901209E
:1040600081F83C00FFE7FFE70499022081F83D005A
:104070000498006880680190019820F07700019012
:10408000019820F47F4001900198049909688860A4
:10409000039800680090002872D0FFE7009810286D
:1040A0006ED0FFE7009820286AD0FFE700983028FC
:1040B00066D0FFE70098402855D0FFE700985028C9
:1040C00037D0FFE70098602840D0FFE700987028BD
:1040D0000BD0FFE70098B0F5805F05D0FFE70098B0
:1040E000B0F5005F16D052E055E004980068039BDD
:1040F0005A689968DB6801F029FA049800688068BA
:104100000190019840F077000190019804990968A6
:10411000886040E004980068039B5A689968DB68EF
:1041200001F014FA04980168886840F480408860BF
:1041300031E004980068039A5168D26801F036FAB9
:1041400004980068502101F01BFA24E004980068EC
:10415000039A5168D26801F051FA0498006860210E
:1041600001F00EFA17E004980068039A5168D268CB
:1041700001F01CFA04980068402101F001FA0AE0FD
:10418000049800680399096801F0FAF903E0012036
:104190008DF80B00FFE70499012081F83D00FFE74F
:1041A0000499002081F83C00FFE79DF80B008DF892
:1041B0001700FFE79DF8170006B080BD81B00090A2
:1041C00001B0704780B584B0039003980068C06860
:1041D000029003980068006901909DF80400800730
:1041E000002824D5FFE79DF80800800700281DD58A
:1041F000FFE7039801686FF002000861039901204E
:104200000877039800688069800720B1FFE703986A
:10421000FFF7D4FF06E0039800F0E2F8039800F0FF
:10422000E3F8FFE7039900200877FFE7FFE79DF831
:1042300004004007002825D5FFE79DF80800400747
:1042400000281ED5FFE7039801686FF0040008619D
:1042500003990220087703980068806910F4407F72
:1042600004D0FFE70398FFF7A9FF06E0039800F0EA
:10427000B7F8039800F0B8F8FFE703990020087733
:10428000FFE7FFE79DF804000007002824D5FFE7BB
:104290009DF80800000700281DD5FFE70398016876
:1042A0006FF00800086103990420087703980068FC
:1042B000C069800720B1FFE70398FFF77FFF06E0A2
:1042C000039800F08DF8039800F08EF8FFE703994B
:1042D00000200877FFE7FFE79DF80400C0060028EC
:1042E00025D5FFE79DF80800C00600281ED5FFE78A
:1042F000039801686FF0100008610399082008779F
:1043000003980068C06910F4407F04D0FFE7039869
:10431000FFF754FF06E0039800F062F8039800F0FE
:1043200063F8FFE7039900200877FFE7FFE79DF8B0
:104330000400C00778B1FFE79DF80800C00748B146
:10434000FFE7039801686FF001000861039800F02F
:104350004FF8FFE7FFE79DF804000006002810D59E
:10436000FFE79DF808000006002809D5FFE703983D
:1043700001686FF0800008610398FFF7B7FCFFE762
:10438000FFE79DF804004006002810D5FFE79DF8E0
:1043900008004006002809D5FFE7039801686FF080
:1043A00040000861039800F037F8FFE7FFE79DF849
:1043B00004008006002810D5FFE79DF8080080065D
:1043C000002809D5FFE7039801686FF02000086115
:1043D0000398FFF78FFCFFE7FFE704B080BD000004
:1043E00081B0009001B0704781B0009001B070477B
:1043F00080B582B00190019800680021C4F20101EB
:10440000884203D1FFE7FEF73FFEFFE7019801F086
:1044100017FC02B080BD000081B0009001B0704771
:1044200080B586B004900391ADF80A20049890F806
:104430004200202848D1FFE7039820B1FFE7BDF8EC
:104440000A0020B9FFE701208DF8170040E0049929
:104450000120086304990020486304980399BDF87B
:104460000A2001F003FB8DF809000498006B012875
:1044700021D1FFE7FFE70020019004980068006861
:10448000019004980068406801900198FFE7FFE7F9
:10449000FFE70498006850E8030F40F01000009018
:1044A000FFE700990498026842E803100028F0D161
:1044B000FFE7FFE703E001208DF80900FFE79DF823
:1044C00009008DF8170003E002208DF81700FFE7C0
:1044D0009DF8170006B080BD80B582B00190ADF8A0
:1044E00002100198406B012801D1FFE741E00198DB
:1044F000006841F20001C4F20101884239D1FFE7AE
:1045000040F2E360C2F200000078FF2825D1FFE707
:1045100001208DF80100FFE79DF80100BDF80210B1
:10452000884219DAFFE79DF8011040F2E360C2F219
:104530000000405C012808D1FFE740F27001C2F2A0
:104540000001088801300880FFE7FFE79DF80100BF
:1045500001308DF80100DFE7FFE740F28860C2F22A
:10456000000040F2E361C2F200010522FFF758FFAC
:10457000FFE702B080BD000081B0009001B070473D
:1045800080B592B011901198006800681090119851
:104590000068C0680F901198006840690E90002074
:1045A0000D900C90109800F00F000D900D9888B9A8
:1045B000FFE79DF84000800600280AD5FFE79DF838
:1045C0003C008006002804D5FFE7119801F09AF915
:1045D00002E2FFE70D98002800F0C280FFE79DF897
:1045E0003800C00738B9FFE7BDF83C0010F4907FF1
:1045F00000F0B680FFE79DF84000C00758B1FFE724
:104600009DF83D00C00730B1FFE71199486C40F0BC
:1046100001004864FFE79DF84000400700280BD5E3
:10462000FFE79DF83800C00730B1FFE71199486CEB
:1046300040F002004864FFE79DF840008007002832
:104640000BD5FFE79DF83800C00730B1FFE711999F
:10465000486C40F004004864FFE79DF84000000704
:10466000002811D5FFE79DF83C008006002805D4FE
:10467000FFE79DF83800C00730B1FFE71199486C9B
:1046800040F008004864FFE71198406C002866D0AD
:10469000FFE79DF84000800600280AD5FFE79DF857
:1046A0003C008006002804D5FFE7119801F02AF9A4
:1046B000FFE7119800684069C0F380100C901198D2
:1046C000406C0007002804D4FFE70C9800283ED077
:1046D000FFE7119801F09CF81198006840694006C6
:1046E00000282FD5FFE7FFE7FFE71198006850E8A3
:1046F000050F20F040000B90FFE70B99119802681E
:1047000042E805100028F0D1FFE7FFE71198C06BE1
:1047100098B1FFE71198C16B45F25160C0F60000F7
:1047200008651198C06BFEF75DF828B1FFE7119896
:10473000C06B016D8847FFE703E01198FFF71CFF8E
:10474000FFE703E01198FFF717FFFFE706E0119876
:10475000FFF712FF119900204864FFE7FFE73BE1F4
:104760001198006B012840F01781FFE79DF8400089
:10477000C006002840F11081FFE79DF83C00C0060C
:10478000002840F10981FFE7FFE700200A90119817
:10479000006800680A901198006840680A900A98BA
:1047A000FFE71198006840694006002840F19A80B0
:1047B000FFE71198C06B00684068ADF82600BDF8AF
:1047C0002600002875D0FFE7BDF826001199898DD5
:1047D00088426EDAFFE7BDF826001199C885119866
:1047E000C06BC069B0F5807F58D0FFE7FFE7FFE7F7
:1047F0001198006850E8030F20F480700890FFE7DC
:1048000008991198026842E803100028F0D1FFE7E8
:10481000FFE7FFE7FFE71198006850E8050F20F079
:1048200001000790FFE707991198026842E8051018
:104830000028F0D1FFE7FFE7FFE7FFE711980068E6
:1048400050E8050F20F040000690FFE70699119808
:10485000026842E805100028F0D1FFE7FFE7119950
:10486000202081F84200119900200863FFE7FFE74C
:104870001198006850E8030F20F010000590FFE742
:1048800005991198026842E803100028F0D1FFE76B
:10489000FFE71198C06BFDF72FFFFFE7119902208A
:1048A00048631198818DC28D891A89B2FFF714FE71
:1048B00017E0BDF826001199898D884210D1FFE7D5
:1048C0001198C06BC069B0F5807F08D1FFE71199DE
:1048D000022048631198818DFFF7FEFDFFE7FFE797
:1048E000FFE779E01199888DC98D401AADF8120063
:1048F0001198C08D00284ED0FFE7BDF812000028A7
:1049000049D0FFE7FFE7FFE71198006850E8030F81
:1049100020F490700390FFE703991198026842E831
:1049200003100028F0D1FFE7FFE7FFE7FFE711984A
:10493000006850E8050F20F001000290FFE702999F
:104940001198026842E805100028F0D1FFE7FFE760
:104950001199202081F84200119900200863FFE797
:10496000FFE71198006850E8030F20F01000019055
:10497000FFE701991198026842E803100028F0D17E
:10498000FFE7FFE71199022048631198BDF8121064
:10499000FFF7A2FDFFE71FE09DF84000000600289A
:1049A0000AD5FFE79DF83C000006002804D5FFE784
:1049B000119801F0F3F80FE09DF840004006002840
:1049C0000AD5FFE79DF83C004006002804D5FFE724
:1049D000119800F067FFFFE712B080BD81B0009032
:1049E00001B0704781B0009001B0704781B0009075
:1049F00001B07047FFE7FEE780B58CB040F2FD40A4
:104A0000C2F20000007800287CD0FFE740F2FD41B0
:104A1000C2F200010020087040F2FC40C2F2000027
:104A20000078D0B9FFE740F2E161C2F20001002056
:104A300008708DF82F00FFE79DF82F0003280BDC8E
:104A4000FFE79DF82F0001F0CDF9FFE79DF82F005B
:104A500001308DF82F00EFE72EE040F2E161C2F265
:104A600000010120087000208DF82E00FFE79DF85E
:104A70002E0003280BDCFFE79DF82E0001F0B2F9B1
:104A8000FFE79DF82E0001308DF82E00EFE740F291
:104A9000E060C2F20000029000210170007801F095
:104AA000D3F9FEF7EBFA02990A7840F2D061C2F22C
:104AB000000141F82200FFE74F208DF80D004B2048
:104AC0008DF80E0040F2E160C2F2000000788DF82F
:104AD0000F000020059040F20121C0F20121069153
:104AE000042107910890032109918DF8280040F2D4
:104AF0000050C2F2000005A90DF10D0204ABFCF755
:104B000065FEFFE740F2E160C2F200000078012894
:104B10002ED1FFE7FEF7B2FA40F2E061C2F20001E7
:104B20000A7840F2D061C2F2000151F82210401A16
:104B300064281DD3FFE740F2E060C2F2000001905C
:104B4000007801F04FF901990878013000F0030076
:104B50000870FEF793FA01460198037840F2D0629C
:104B6000C2F2000242F82310007801F06DF9FFE76D
:104B70000CB080BD80B582B0FEF780FA40F2B04143
:104B8000C2F200010968401A092801D8FFE73DE098
:104B9000FEF774FA40F2B041C2F200010860FBF780
:104BA0003FFCFFF729FFFCF7B5FD00200190FFE770
:104BB000019803282AD8FFE7019840F27402C2F254
:104BC00000024FF4867100FB012090F86F00C007CF
:104BD000B8B1FFE7019840F27402C2F200024FF44C
:104BE000867100FB0123002083F86F00019800FB11
:104BF000012301205870019800FB012102208870D8
:104C0000FFE7FFE7019801300190D1E702B080BDD6
:104C100080B58CB040F20050C2F20000019046F224
:104C20000041C4F200010160032141600021816064
:104C3000C1604FF4002202614FF4401242610176DC
:104C4000012242768176C27601774177FDF742FAFA
:104C500018B1FFE7FCF71CFCFFE701210A910E20C9
:104C60000B90002007900991089006900290039005
:104C70000490059040F20050C2F2000002A9FCF737
:104C800051FE18B1FFE7FCF703FCFFE740F20050CC
:104C9000C2F20000FDF7CEFC18B1FFE7FCF7F8FB0D
:104CA000FFE740F20050C2F200000221FCF764FD71
:104CB00018B1FFE7FCF7ECFBFFE740F20050C2F24F
:104CC00000001021FCF758FD18B1FFE7FCF7E0FBEE
:104CD000FFE70CB080BD000080B58CB040F22850DA
:104CE000C2F20000019046F60001C4F2000101602A
:104CF0000321416000218160C1604FF40022026104
:104D00004FF4401242610176012242768276C276E9
:104D100001774177FDF7DEF918B1FFE7FCF7B8FB43
:104D2000FFE701210A910E200B90079000200990C7
:104D30000891069044F22000029044F24000049052
:104D400044F2600003904FF48140059040F22850F7
:104D5000C2F2000002A9FCF7E5FD18B1FFE7FCF77D
:104D600097FBFFE701200A900E200B900F20079081
:104D700000200990089006900290049003900590FE
:104D800040F22850C2F2000002A9FCF7CBFD18B196
:104D9000FFE7FCF77DFBFFE740F22850C2F200007E
:104DA000FDF748FC18B1FFE7FCF772FBFFE740F2A4
:104DB0002850C2F200000221FCF7DEFC18B1FFE728
:104DC000FCF766FBFFE740F22850C2F2000010211A
:104DD000FCF7D2FC18B1FFE7FCF75AFBFFE70CB079
:104DE00080BD000080B582B0FFE70020019043F64F
:104DF0003000C4F20200016841F4800101600068E3
:104E000000F4800001900198FFE73A200090002212
:104E10001146FEF701FA0098FEF7F4F902B080BDE2
:104E200080B590B000200F900E900D900C900B90DC
:104E3000FFE700200A9043F63000C4F20200016848
:104E400041F080010160006800F080000A900A983B
:104E5000FFE7FFE70020099043F63000C4F20200AC
:104E6000016841F001010160006800F00100099053
:104E70000998FFE7FFE70020089043F63000C4F2EE
:104E80000200016841F004010160006800F00400C4
:104E900008900898FFE7FFE70020079043F63000EE
:104EA000C4F20200016841F002010160006800F0F4
:104EB000020007900798FFE70020C4F2020002906A
:104EC0004FF4FE7100220592FEF7C0F80298059992
:104ED0000C220B92012201920C920D910E910BA9C2
:104EE0000491FDF7D7FE019B02980499059A4FF4AF
:104EF000F87CCDF82CC00C93022303930D930E92F3
:104F0000FDF7C8FE039804994FF400620B924FF42A
:104F100088120C920D9040F60000C4F20200FDF7DA
:104F2000B9FE059A282006900521FEF775F9069826
:104F3000FEF768F910B080BD80B588B000210191FE
:104F400007910691059104910391029140F2F85066
:104F5000C2F200004FF08042026053224260816042
:104F600040F2CF72C26001618161FEF759FF18B152
:104F7000FFE7FCF78DFAFFE74FF48050049040F212
:104F8000F850C2F2000004A9FFF756F818B1FFE785
:104F9000FCF77EFAFFE700200290039040F2F85001
:104FA000C2F2000002A9FEF7A9FE18B1FFE7FCF764
:104FB0006FFAFFE708B080BD80B588B0002101918D
:104FC00007910691059104910391029140F240608E
:104FD000C2F2000040F20042C4F20002026053221A
:104FE0004260816040F2CF72C260016180218161C4
:104FF000FEF716FF18B1FFE7FCF74AFAFFE74FF498
:105000008050049040F24060C2F2000004A9FFF713
:1050100013F818B1FFE7FCF73BFAFFE70020029016
:10502000039040F24060C2F2000002A9FEF766FE63
:1050300018B1FFE7FCF72CFAFFE708B080BD0000CD
:10504000FFE7FEE7FFE7FEE788B0079006910592CD
:10505000079800F0070004900498C0F107000528A5
:1050600003D3FFE70420019004E00498C0F1070097
:105070000190FFE70198039004980430062803D8B4
:10508000FFE70020009003E0049803380090FFE75A
:105090000098029006980399012202FA01F1013961
:1050A0000840029B984005999A40013A11400843F4
:1050B00008B0704786B002AA009202460098059296
:1050C00080ED020AC0ED010A80ED001A8DF807108C
:1050D0000498059908610398059948610298059913
:1050E00088619DF807000599087005990020C8613E
:1050F000059908620599C860059988600599486016
:105100000599C86206B0704782B00190019890ED91
:10511000070A90ED081A30EE410A80ED010A019865
:1051200000780146009160B3FFE7009801287BD129
:10513000FFE7019890ED012A90ED024A90ED033AC5
:1051400090ED040A32EE445A90ED051A21EE021A4F
:1051500020EE050A30EE011A90ED060A34EE044AFC
:1051600032EE442A32EE032A20EE020A30EE010A21
:1051700080ED0B0A01998868C860019948688860C9
:1051800053E0019890ED010A90ED031AB6EE002A63
:1051900021EE021A20EE020A30EE010A80ED030A27
:1051A000019890ED030A9FED231AB4EE410AF1EE47
:1051B00010FA07DDFFE7019944F20000C4F21C6019
:1051C000C86012E0019890ED030A9FED1B1AB4EE3F
:1051D000410AF1EE10FA07DAFFE7019944F2000004
:1051E000CCF21C60C860FFE7FFE7019890ED012A50
:1051F00090ED023A90ED034A90ED040A90ED051A05
:1052000021EE041A20EE020A30EE011A90ED060A91
:1052100032EE432A20EE020A30EE010A80ED0B0A3C
:1052200001994868886000E0FFE7019890ED0B0A5B
:1052300002B0704700401C4600401CC681B0009080
:1052400000990020C8600099886000994860009922
:10525000C86201B07047000070470000704700004E
:1052600080B58AB08DF827008DF826109DF82600AD
:105270008DF80A0000208DF80B00042105919DF89F
:10528000271040F20012C0F201521143049106901F
:10529000022107918DF8200040F20050C2F2000078
:1052A00003A90DF10A0201ABFCF790FA0AB080BD28
:1052B0007047000080B594B008A83021FBF74CF887
:1052C000002007900690059004900390FFE70020CF
:1052D000029043F64000C4F20200016841F08051A0
:1052E0000160006800F0805002900298FFE7FFE73D
:1052F0000020019047F20000C4F20000016841F470
:1053000080410160006800F4804001900198FFE74F
:10531000012008904FF48030099002200E904FF445
:1053200080010F91192110914FF4A87111911290E1
:105330000420139008A8FEF779F918B1FFE7FCF7ED
:10534000A7F8FFE70F2003900220049000200590AB
:105350004FF4A05006904FF48050079003A8052109
:10536000FDF77CFF18B1FFE7FCF792F8FFE714B0F8
:1053700080BD00004EF68851CEF20001086840F46E
:10538000700008607047000080B540F2B050C2F273
:105390000000FEF717FF80BD80B540F2F850C2F262
:1053A0000000FEF70FFF80BD83B0029001910298CC
:1053B0000068009002980021C4F20101884225D0C3
:1053C000FFE70298B0F1804F20D0FFE7029840F24B
:1053D0000041C4F20001884218D0FFE7029840F66D
:1053E0000001C4F20001884210D0FFE7029840F6A5
:1053F0000041C4F20001884208D0FFE7029840F261
:105400000041C4F2010188420AD1FFE7009820F070
:105410007000009001984168009808430090FFE7F1
:1054200002980021C4F20101884255D0FFE702989A
:10543000B0F1804F50D0FFE7029840F20041C4F233
:105440000001884248D0FFE7029840F60001C4F20C
:105450000001884240D0FFE7029840F60041C4F2C4
:105460000001884238D0FFE7029840F20041C4F2C0
:105470000101884230D0FFE7029844F20001C4F2F3
:105480000101884228D0FFE7029844F20041C4F2AB
:105490000101884220D0FFE7029844F60001C4F2DF
:1054A0000101884218D0FFE7029841F60001C4F2DA
:1054B0000001884210D0FFE7029841F60041C4F293
:1054C0000001884208D0FFE7029842F20001C4F2CE
:1054D000000188420AD1FFE7009820F44070009054
:1054E0000198C168009808430090FFE7009820F0F9
:1054F00080000199496908430090019880680299E9
:10550000C862019800680299886202980021C4F27A
:105510000101884208D0FFE7029840F20041C4F23E
:105520000101884205D1FFE70198006902990863EB
:10553000FFE70299086840F0040008600299012022
:10554000486100980299086003B0704785B00490E4
:10555000039102920193049880680090009820F4CF
:105560007F40009003980299019A41EA0221014389
:1055700000980843009000980499886005B070472F
:1055800083B002900191029880680090009820F00A
:105590007000009001980099084340F007000090C7
:1055A00000980299886003B07047000085B00490AD
:1055B000039102920498006A00900499086A20F00E
:1055C00001000862049880690190019820F0F000C1
:1055D00001900299019840EA01100190009820F092
:1055E0000A000090039900980843009001980499DC
:1055F000886100980499086205B0704785B00490EE
:10560000039102920498006A00900499086A20F0BD
:1056100010000862049880690190019820F470409D
:1056200001900299019840EA01300190009820F021
:10563000A00000900399009840EA011000900198A2
:105640000499886100980499086205B070470000C9
:1056500080B582B001900198806B00900099002085
:10566000C8850098FEF788FF02B080BD80B584B081
:105670000390002002900398806B019001980068CD
:105680004069C0B2C0090290019890F841002128F9
:105690000AD1FFE7029838B1FFE701990020C884DA
:1056A000019800F013F9FFE7019800684069C0F322
:1056B00080100290019890F8420022280AD1FFE75A
:1056C000029838B1FFE701990020C885019800F0E1
:1056D0009FF8FFE70199486C40F01000486401987A
:1056E000FEF74AFF04B080BD80B586B005900598EE
:1056F000806B0490059800680068C00500285AD4A3
:10570000FFE704990020C885FFE7FFE704980068D9
:1057100050E8030F20F480700390FFE7039904988A
:10572000026842E803100028F0D1FFE7FFE7FFE737
:10573000FFE70498006850E8050F20F00100029090
:10574000FFE702990498026842E805100028F0D1AA
:10575000FFE7FFE7FFE7FFE70498006850E8050F61
:1057600020F040000190FFE701990498026842E8A8
:1057700005100028F0D1FFE7FFE70499202081F809
:1057800042000498006B012814D1FFE7FFE7FFE710
:105790000498006850E8030F20F010000090FFE725
:1057A00000990498026842E803100028F0D1FFE74E
:1057B000FFE7FFE7FFE70499002048630498006BC8
:1057C000012805D1FFE70498818DFEF785FE03E0EF
:1057D0000498FFF703F9FFE706B080BD80B582B0FB
:1057E00001900198806B0090009901204863009817
:1057F000006B012806D1FFE70098818D4908FEF76C
:105800006BFE03E00098FFF7EDF8FFE702B080BD04
:1058100084B00390FFE7FFE70398006850E8030FA8
:1058200020F490700290FFE702990398026842E822
:1058300003100028F0D1FFE7FFE7FFE7FFE7039839
:10584000006850E8050F20F001000190FFE7019982
:105850000398026842E805100028F0D1FFE7FFE74F
:105860000398006B012814D1FFE7FFE7FFE70398D7
:10587000006850E8030F20F010000090FFE7009947
:105880000398026842E803100028F0D1FFE7FFE721
:10589000FFE70399202081F8420003990020086364
:1058A00004B0704780B582B0019001980168C86863
:1058B00020F04000C8600199202081F84100019843
:1058C000FFF794F8002002B080BD000082B0019084
:1058D000FFE7FFE70198006850E8030F20F0C000E1
:1058E0000090FFE700990198026842E80310002841
:1058F000F0D1FFE7FFE70199202081F8410002B0D5
:105900007047000080B586B004900020039002909C
:10591000049890F84200222840F0A080FFE7049805
:105920008068B0F5805F13D1FFE70498006978B90B
:10593000FFE70498806A02900498006840686FF35B
:105940005F20029908800499886A0230886223E007
:105950000498806A039004988068B0F5805F08D04E
:10596000FFE70498806850B9FFE70498006930B9F0
:10597000FFE70498006840680399087007E00498FE
:105980000068406800F07F0003990870FFE7049901
:10599000886A01308862FFE70499C88D0138C8859C
:1059A0000004002856D1FFE704980168C86820F079
:1059B0002000C86004980168C86820F48070C8603E
:1059C00004980168486920F001004861049920208A
:1059D00081F842000499002048630498006B012874
:1059E00030D1FFE7049900200863FFE7FFE7049840
:1059F000006850E8030F20F010000190FFE70199C4
:105A00000498026842E803100028F0D1FFE7FFE79E
:105A1000049800680068C00600280ED5FFE7FFE77D
:105A200000200090049800680068009004980068C6
:105A3000406800900098FFE7FFE70498818DFEF72B
:105A40004BFD03E00498FEF7C9FFFFE700208DF847
:105A5000170007E000208DF8170003E002208DF802
:105A60001700FFE79DF8170006B080BD80B58AB02B
:105A700008900791ADF81A20079808998862BDF838
:105A80001A0008998885089900204864089A2221FC
:105A900082F842100899CA6B45F2E961C0F600012C
:105AA000D1630899CA6B45F2DD71C0F6000111643B
:105AB0000899CA6B45F26D61C0F60001D16408997E
:105AC000C96B086507A8059008980168C06B043188
:105AD000059A1268BDF81A30FDF736F858B1FFE79D
